:100000000C943E000C945B000C945B000C945B0021
:100010000C945B000C945B000C945B000C945B00F4
:100020000C945B000C945B000C945B000C945B00E4
:100030000C945B000C945B000C945B000C945B00D4
:100040000C945B000C945B000C945B000C945B00C4
:100050000C945B000C945B000C945B000C945B00B4
:100060000C945B000C945B000C945B000C945B00A4
:100070000C945B000C945B000C945B0011241FBE7D
:10008000CFEFD8E0DEBFCDBF11E0A0E0B1E0E6E603
:10009000F7E002C005900D92AC3FB107D9F722E01E
:1000A000ACEFB1E001C01D92A230B207E1F70E94AF
:1000B00079030C94B1030C9400008CE391E00E944E
:1000C00064038FE39CE90197F1F700C00000F5CFCE
:1000D000229856982A9A5E9AC0E0D0E01A9903C0F6
:1000E000DD23A9F0D1E01A9B02C0D11115C04E99B1
:1000F00003C0CC23B9F0C1E04E9B02C0C11117C0B0
:100100008FE19EE40197F1F700C00000E7CF85E49E
:1001100091E00E946403E6CF81E591E00E946403D0
:10012000D0E0E5CF8CE591E00E946403E4CF88E65F
:1001300091E00E946403C0E0E3CF549A22E3289F39
:10014000A001299F500D112420E030E090E12417F8
:10015000350754F499B9EFE9FFE03197F1F700C0A2
:1001600000002F5F3F4FF3CF08958FEF87B918B886
:100170001FEF0E945D039FE9980F9A31D0F780939B
:10018000C600E82FEE0FFF0BE25CFF4FC081D1816C
:1001900089918823A1F0082E000C990BC0970E942A
:1001A0009D002FEF80E792E0215080409040E1F7E2
:1001B00000C0000017B988B1809588B9E9CF2FEF4A
:1001C00080E792E0215080409040E1F700C00000BD
:1001D000D0CF83E791E00E942B03FFCFCF93DF9333
:1001E000CDB7DEB72C970FB6F894DEBF0FBECDBFEC
:1001F000229856982A9A5E9A8CE0E9E8F1E0DE01AE
:10020000119601900D928A95E1F7CE0101960E9418
:100210002B03FF24FA948FEF10E003B1E9B082FFC3
:1002200014C002FD12C01F5F812F012E000C990B1C
:100230000B96419708F015E081E00E94E802BE01AC
:100240006F5F7F4F812F0E943703F6FE0EC0E6FCE2
:100250000CC0115017FD10E081E00E94E802BE01C1
:100260006F5F7F4F812F0E9437038FE19EE40197DC
:10027000F1F700C00000FE2C802FCFCFD0E00E940D
:100280005D03C1E0CD0F682F8D2F0E942203C03186
:1002900019F4C0E4DC2FF3CFC035E1F7C0E0FACFAA
:1002A000CF93DF93CDB7DEB728970FB6F894DEBFB4
:1002B0000FBECDBF229856982A9A5E9A88E0E4E352
:1002C000F1E0DE01119601900D928A95E1F780E44C
:1002D0000E94E8028E010F5F1F4F7E0189E0E80E49
:1002E000F11CF80181918F010E9414030E151F0566
:1002F000C1F780E80E94E80260E080E40E942203E7
:100300003FEF9FEF80E4EE24E39403B1F9B092FF56
:1003100005C002FB222720F92E2501C020E036FF70
:1003200005C0F6FA992790F99E2501C090E002FDDC
:1003300007C0F6FC05C080340CF110EC180F16C095
:10034000222331F01FEF180F1F3371F410E40CC09B
:10035000992331F011E0180F103531F41FE404C077
:10036000803264F410E4180F811741F081E00E949C
:10037000E80260E0812F0E942203812FEFE1FEE47A
:100380003197F1F700C000003F2D902FBECFCF93E3
:10039000DF93CDB7DEB72E970FB6F894DEBF0FBE52
:1003A000CDBF229856982A9A5E9A80E793E09A8762
:1003B000898782E08C83CE0101969093FF01809320
:1003C000FE0110E000E01A9903C00023A9F001E04B
:1003D0001A9B02C0011115C04E9903C01123B9F038
:1003E00011E04E9B02C0111117C08FE19EE40197EE
:1003F000F1F700C00000E7CF85E991E00E9481039A
:10040000E6CF80EA91E00E94810300E0E5CF8AEA2E
:1004100091E00E948103E4CF85EB91E00E9481038B
:1004200010E0E3CFDF92EF92FF920F931F93CF93F1
:10043000DF9387B1877887B988B1877888B9179AA9
:1004400000C000C086B1D6B0D6B1E6B0179800C0E3
:1004500000C0179A00C000C006B116B1C6B1F6B010
:10046000179800C000C097B1986797B920E1829FA4
:10047000C001112480789927D4FA222720F930E08E
:1004800046E0220F331F4A95E1F7282B392B9D2F89
:100490009072292BE6FA662760F970E054E0660F47
:1004A000771F5A95E1F7262B372BF6FAAA27A0F9E2
:1004B000B0E0802F8870A82B14FBEE27E0F9F0E065
:1004C000EE0FFF1FEE0FFF1FEA2BFB2BC5FB442790
:1004D00040F950E0440F551FCF01842B952B822B00
:1004E000DF91CF911F910F91FF90EF90DF900895D2
:1004F0001598169A00C000C00C941202159A169A0C
:1005000000C000C00C9412020E947802881F882745
:10051000881F08950E9484028111FCCF08951F93C3
:10052000CF93DF93179A98B19778182F1072D92F1D
:10053000D12B982F991F9927991F990F990F990FD0
:100540009D2B282F86FBAA27A0F9B0E034E0AA0F44
:10055000BB1F3A95E1F7A92BE82FE295E170F0E097
:1005600046E0EE0FFF1F4A95E1F7EA2BE8B900C01D
:1005700000C0179800C000C0179A98B19778E82F6C
:10058000E8709E2B682F617070E056E0660F771F51
:100590005A95E1F7692B82FB442740F950E074E05B
:1005A000440F551F7A95E1F7462B2695217030E0D0
:1005B000E5E0220F331FEA95E1F7242B28B900C0AC
:1005C00000C0179800C000C0DF91CF911F9108951F
:1005D000CF93C82F0E948A021598169800C000C0B9
:1005E0008C2FCF910C948F0287B1886787B981B126
:1005F000806E81B91598169800C000C0179A88B10E
:100600008778806288B900C000C0179800C000C019
:1006100088E20E94E8028FE00E94E80286E00E94E1
:10062000E80281E00C94E802CF93C82F0E948A026E
:10063000159A169800C000C08C2FCF910C948F0291
:100640000C941403CF93C62F80580E94E8028C2F7D
:10065000CF910C941403CF93DF93EC0189918823FD
:1006600019F00E941403FACFDF91CF910895CF9330
:10067000DF93EB0180680E94E802CE01DF91CF9109
:100680000C942B031092C50087E68093C40088E188
:100690008093C100E2ECF0E08081877F80838081DD
:1006A0008460808380818062808308959091C000FF
:1006B00095FFFCCF8093C60008958091C00087FF0E
:1006C000FCCF8091C6000895CF93DF93EC01899110
:1006D000882319F00E945603FACFDF91CF91089535
:1006E0009091C00095FFFCCF8093C60080E090E021
:1006F00008950E9442030E94F402529A5A9A0E945C
:10070000E9000F931F93CF93DF93E091FE01F091E7
:10071000FF01238121FF1BC08C01D0E0C0E0F80164
:1007200081918F016091FE017091FF01DB011896AC
:10073000ED91FC911997882331F00995892B79F374
:10074000DFEFCFEFECCF8AE00995892B19F08FEF1F
:100750009FEF02C08D2F9C2FDF91CF911F910F91A2
:060760000895F894FFCF9C
:10076600E901BF01C401D901D101C901DE01CE01F0
:10077600D001D301E301D801F301CB01D401DD019E
:10078600E201CA01CF01EA01E801E701F201EC0149
:10079600F101F601000E0E040E040E0A53616C758B
:1007A60074210A0D00504232206170617361740A2F
:1007B60000504232206C617361740A005044362046
:1007C6006170617361740A00504436206C61736114
:1007D600740A0048656C6C6F20576F726C64212038
:1007E60020202073616C75740048656C6C6F20570F
:1007F6006F726C64005042322061706173617400E4
:10080600504232206C61736174005044362061702E
:100816006173617400504436206C617361740033F7
:10082600313131003331333100313133310031313F
:100836003131003133333300313331310031333329
:100846003100333331330031313133003331313319
:0C08560000333133330033333131000004
:00000001FF
