:100000000C943E000C9453000C9453000C94530039
:100010000C9453000C9453000C9453000C94530014
:100020000C9453000C9453000C9453000C94530004
:100030000C9453000C9453000C9453000C945300F4
:100040000C9453000C9453000C9453000C945300E4
:100050000C9453000C9453000C9453000C945300D4
:100060000C9453000C9453000C9453000C945300C4
:100070000C9453000C9453000C94530011241FBE95
:10008000CFEFD8E0DEBFCDBF11E0A0E0B1E0ECE102
:10009000F5E002C005900D92A031B107D9F70E949A
:1000A00022020C948C020C94000022982A9A389A0E
:1000B00040981A99FDCF409AFCCF229856982A9AD8
:1000C0005E9A8FEF87B918B880E090E020E030E0CA
:1000D000C0E0D0E040E050E0E1E0F0E003E010E01C
:1000E0006FE0E62EF12C7EE0C72ED12CA7E0AA2EE1
:1000F000B12C1A990BC0CD2B61F4453051054CF44D
:100100004F5F5F4F18B880E090E003C0C0E0D0E0E0
:1001100002C0C1E0D0E04E9926C0232B39F541152D
:100120005105F1F14150510918B84230510509F417
:1001300058C054F44115510589F14130510509F079
:10014000B9C021E030E03EC04430510509F481C01F
:100150000CF460C04530510509F0ACC080E090E07F
:1001600021E030E09DC020E030E002C021E030E03E
:1001700042305105D1F13CF44115510599F041301F
:100180005105E1F09EC04430510509F466C00CF4FD
:1001900045C04530510509F483C093C080E090E02C
:1001A00021E030E087709927AF01082E01C0440F8D
:1001B0000A94EAF748B940E050E083C08770992775
:1001C000009719F418B880E090E068B1AF01082EEC
:1001D00001C0440F0A94EAF7462B48B941E050E0C9
:1001E00070C080E090E021E030E087709927A501A1
:1001F000481B590BBF0101C0660F4A95EAF7AF01D2
:10020000082E01C0440F0A94EAF7462B48B942E091
:1002100050E057C080E090E021E030E0B7010E945C
:100220002302883091053CF4AF01082E01C0440F31
:100230000A94EAF70AC0A601481B590BBF0102C085
:10024000660F771F4A95E2F7AB0148B943E050E0EB
:1002500038C080E090E021E030E08F70992700976F
:1002600011F418B803C0883091054CF468B1AF019F
:10027000082E01C0440F0A94EAF7462B0DC058B16E
:10028000BC0168507109DF0102C0AA0FBB1F6A954B
:10029000E2F74A2F4095452348B944E050E011C0A9
:1002A000B8010E94230248B1440F48B9009739F4BD
:1002B000409A05C021E030E080E090E002C045E0D7
:1002C00050E00196BFEF64E37CE0B15060407040C5
:1002D000E1F700C000000DCFAC0120E030E090E17C
:1002E0002417350754F499B9EFE9FFE03197F1F796
:1002F00000C000002F5F3F4FF3CF0895229856981B
:100300002A9A5E9A549A5C981A9903C082E390E004
:1003100004C04E9904C086E990E00E946C015C988C
:100320002FEF80E792E0215080409040E1F700C03D
:100330000000EACF880F991FFC01E050FF4F208199
:100340003181032E000C440B550B60E472E48FE006
:1003500090E00E9437025C9AC90137FD019695959D
:10036000879520E030E0281739073CF445E04A95AE
:10037000F1F700002F5F3F4FF6CF5C9820E030E0B0
:10038000281739073CF445E04A95F1F700002F5F44
:100390003F4FF6CF089521E030E001C0220F8A954B
:1003A000EAF728B9089518B80895229856982A9A15
:1003B0005E9A8FEF87B918B8549A5C98CFEFDFEF49
:1003C000E12CF12C00E010E0CC24C394D12C1A993C
:1003D0000DC0012B71F4C730D1050CF421968FE3C9
:1003E0009CE90197F1F700C0000003C000E010E0B5
:1003F00002C001E010E04E990EC0EF2879F4CF3F23
:100400009FEFD90709F021978FE39CE90197F1F756
:1004100000C0000003C0E12CF12C03C0EE24E394E3
:10042000F12CCF3F9FEFD90759F0C6010C2E01C028
:10043000880F0A94EAF788B9CE010E949A01C7CFC3
:1004400018B8C5CFFFCF97FB072E16F4009407D03E
:1004500077FD09D00E94560207FC05D03EF4909526
:1004600081959F4F0895709561957F4F0895052E52
:1004700097FB1EF400940E944E0257FD07D00E9485
:100480006A0207FC03D04EF40C944E02509540953E
:10049000309521953F4F4F4F5F4F08959095809530
:1004A000709561957F4F8F4F9F4F0895AA1BBB1B7F
:1004B00051E107C0AA1FBB1FA617B70710F0A61B64
:1004C000B70B881F991F5A95A9F780959095BC0185
:1004D000CD010895A1E21A2EAA1BBB1BFD010DC080
:1004E000AA1FBB1FEE1FFF1FA217B307E407F507E4
:1004F00020F0A21BB30BE40BF50B661F771F881FC0
:10050000991F1A9469F760957095809590959B0155
:0C051000AC01BD01CF010895F894FFCFAD
:10051C00060126014A015D018801B801EE010B02BA
:00000001FF
